:100000000C9463000C948B000C948B000C944C05A6
:100010000C944C050C944C050C948B000C948B00A8
:100020000C948B000C948B000C948B000C948B0024
:100030000C948B000C948B000C948B000C948B0014
:100040000C94AA040C948B000C941A050C94F404E0
:100050000C948B000C948B000C948B000C948B00F4
:100060000C948B000C948B000000000024002700EF
:100070002A0000000008000201000003040700003D
:1000800000000000000000000000230026002900FE
:1000900000000000250028002B00040404040404D0
:1000A0000404020202020202030303030303010227
:1000B00004081020408001020408102001020408F6
:1000C0001020C405830911241FBECFEFD8E0DEBF86
:1000D000CDBF22E0AAE3B1E001C01D92AD34B2076A
:1000E000E1F711E0A0E0B1E0E0EBF8E102C005903B
:1000F0000D92AA33B107D9F710E0C2E6D0E004C0F0
:100100002197FE010E944A0AC136D107C9F70E9411
:1001100080060C944B0C0C94000090E0FC01EE580F
:10012000FF4F2491FC01E255FF4F3491FC01E6564C
:10013000FF4FE491EE23C9F0222339F0233001F17F
:10014000A8F4213019F1223029F1F0E0EE0FFF1F61
:10015000E057FF4FA591B4918FB7F894EC916111DE
:1001600026C030953E233C938FBF08952730A9F0D9
:100170002830C9F0243049F7809180008F7D03C07A
:10018000809180008F7780938000DFCF84B58F7758
:1001900084BDDBCF84B58F7DFBCF8091B0008F779E
:1001A0008093B000D2CF8091B0008F7DF9CF3E2BED
:1001B000DACFCF93DF9390E0FC01E255FF4F24911B
:1001C00086569F4FFC0184918823D1F090E0880FE0
:1001D000991FFC01E859FF4FA591B491FC01E0572C
:1001E000FF4FC591D49161110EC09FB7F8948C91C7
:1001F000E22FE0958E238C932881E223E8839FBF32
:10020000DF91CF9108958FB7F894EC91E22BEC93A6
:100210008FBFF6CF1F93CF93DF93182FEB0161E0D1
:100220000E94D900209739F460E0812FDF91CF91AF
:100230001F910C948D00CF3FD10511F461E0F5CFF3
:10024000E12FF0E0EE58FF4FE491E33031F140F45C
:10025000E130B1F0E230E1F0C038D1057CF7E4CF15
:10026000E73029F1E83059F1E430B1F780918000AE
:10027000806280938000D0938B00C0938A0004C07A
:1002800084B5806884BDC7BDDF91CF911F9108956B
:1002900084B5806284BDC8BDF7CF8091800080683E
:1002A00080938000D0938900C0938800EDCF809127
:1002B000B00080688093B000C093B300E5CF809118
:1002C000B00080628093B000C093B400DDCF3FB730
:1002D000F89480917F0190918001A0918101B0916B
:1002E000820126B5A89B05C02F3F19F00196A11DDC
:1002F000B11D3FBFBA2FA92F982F8827BC01CD0170
:10030000620F711D811D911D42E0660F771F881FCE
:10031000991F4A95D1F708950895AF92BF92CF9251
:10032000DF92EF92FF920F931F93CF93DF936C01B5
:100330007B018B01040F151FEB015E01AE18BF0896
:10034000C017D10759F06991D601ED91FC91019048
:10035000F081E02DC6010995892B79F7C501DF9160
:10036000CF911F910F91FF90EF90DF90CF90BF90B2
:10037000AF900895FC01538D448D252F30E0842FDC
:1003800090E0821B930B541710F0CF9608950197BD
:100390000895FC01918D828D981761F0A28DAE0FAA
:1003A000BF2FB11D5D968C91928D9F5F9F73928F31
:1003B00090E008958FEF9FEF0895FC01918D828D5D
:1003C000981731F0828DE80FF11D858D90E008952A
:1003D0008FEF9FEF0895FC01918D228D892F90E082
:1003E000805C9F4F821B91098F739927089587E83E
:1003F00091E00E94EB0121E0892B09F420E0822F9B
:10040000089580E090E0892B29F00E94F701811186
:100410000C9400000895FC01A48DA80FB92FB11D04
:10042000A35ABF4F2C91848D90E001968F7399272A
:10043000848FA689B7892C93A089B1898C91837008
:1004400080648C93938D848D981306C00288F38901
:10045000E02D80818F7D80830895EF92FF920F932E
:100460001F93CF93DF93EC0181E0888F9B8D8C8D60
:1004700098131AC0E889F989808185FF15C09FB754
:10048000F894EE89FF896083E889F9898081837017
:10049000806480839FBF81E090E0DF91CF911F91C6
:1004A0000F91FF90EF900895F62E0B8D10E00F5FE7
:1004B0001F4F0F731127E02E8C8D8E110CC00FB6BD
:1004C00007FCFACFE889F989808185FFF5CFCE0155
:1004D0000E940B02F1CFEB8DEC0FFD2FF11DE35AC3
:1004E000FF4FF0829FB7F8940B8FEA89FB898081D8
:1004F0008062CFCFCF93DF93EC01888D8823B9F052
:10050000AA89BB89E889F9898C9185FD03C080811E
:1005100086FD0DC00FB607FCF7CF8C9185FFF2CF9B
:10052000808185FFEDCFCE010E940B02E9CFDF91E4
:10053000CF91089520917C0130917D0128173907D2
:1005400071F490917A0180917B01981741F0E091CC
:100550007A01F0E0E65CFE4F808190E008958FEF35
:100560009FEF08950895EF92FF920F931F93CF93FB
:10057000DF93DC015C96ED90FC905D97E114F10453
:1005800079F481E090E013969C938E93129790E01B
:1005900080E0DF91CF911F910F91FF90EF90089530
:1005A0005196ED91FC91529750968C915097982FBF
:1005B00090950FB75E962C915E97122F127021FDC9
:1005C0006095F8942081112319F1282B2083E701ED
:1005D0002197F1F728E0462F50E0308160FF1AC0E4
:1005E000382B3083E7012197F1F7BA0175956795AC
:1005F000215089F7112381F08081892380830FBFE7
:100600005C968D919C910197F1F781E090E0C1CFCC
:100610002923DCCF3923E5CF9081892BEFCF20919F
:100620007C0130917D012817390771F480917B019D
:1006300020917A0190E0805C9F4F821B910960E4D9
:1006400070E00E94000A089590E080E008952091F3
:100650007C0130917D0128173907B9F490917A0116
:1006600080917B01981789F0E0917A01F0E0E65CD7
:10067000FE4F808120917A0130E02F5F3F4F2F7332
:10068000332720937A0190E008958FEF9FEF08952C
:100690002FB7F8948091830190918401A0918501F6
:1006A000B09186012FBF8093320290933302A093C2
:1006B0003402B09335028AE292E00E94270397FF4A
:1006C00026C02FB7F8948091830190918401A09166
:1006D0008501B09186012FBF4091320250913302C3
:1006E0006091340270913502841B950BA60BB70BF9
:1006F00040912E0250912F02609130027091310290
:1007000084179507A607B707B0F28FEF9FEF0895FC
:1007100090E080E0089542E050E06AE271E087E80E
:1007200091E00C948D01CF93DF93FC0144815581BE
:100730006081718187E891E00E948D01EC010E9447
:100740008B038C0F9D1FDF91CF910895FC01808159
:100750009181009711F00C94EC0A0895FC0124811A
:100760003581232B39F421E0FB018081882349F076
:1007700020E007C0808191810E943B0C21E0892B01
:10078000B9F7822F08950F931F93CF93DF93EC0156
:1007900088819981009759F02A813B812617370774
:1007A00030F081E0DF91CF911F910F9108958B017F
:1007B0006F5F7F4F0E94750B009759F09983888374
:1007C0001B830A832C813D81232B59F7FC01108266
:1007D000E8CF80E0E7CFEF92FF920F931F93CF9384
:1007E000DF93EC017B018A01BA010E94C3032881D7
:1007F0003981811114C02115310519F0C9010E94F8
:10080000EC0A198218821D821C821B821A82CE0178
:10081000DF91CF911F910F91FF90EF9008951D836D
:100820000C83B701C9010E94440CF1CFFC01118275
:1008300010821382128215821482F2E084329F07A2
:1008400069F060912402709125026115710531F003
:1008500040912802509129020C94EB030895FB016A
:1008600001900020E9F73197AF01461B570B0C941C
:10087000EB03CF92DF92EF92FF920F931F93CF93F0
:10088000DF93EC017B016A01198218821B821A82B4
:100890001D821C826CE271E00E942F04809128026C
:1008A00090912902E816F90648F586018C159D05F8
:1008B00008F48C01E0912402F0912502E00FF11F71
:1008C000D080108260912402709125026E0D7F1DF0
:1008D00061157105E9F0FB0101900020E9F73197FE
:1008E000AF01461B570BCE010E94EB0380912402FF
:1008F00090912502080F191FF801D082CE01DF91D7
:10090000CF911F910F91FF90EF90DF90CF900895BE
:1009100088819981009711F00E94EC0A198218824F
:100920001D821C821B821A82E1CFCF93DF93EC01E0
:100930006DE271E0CE010E94AE03811108C041E07A
:1009400050E06DE271E0CE010E94EB03F1CFDF9148
:10095000CF9108951F920F920FB60F9211242F93EB
:100960003F938F939F93AF93BF9380918301909117
:100970008401A0918501B091860130917E0123E030
:10098000230F2D3758F50196A11DB11D20937E012F
:100990008093830190938401A0938501B093860195
:1009A00080917F0190918001A0918101B09182019D
:1009B0000196A11DB11D80937F0190938001A093AA
:1009C0008101B0938201BF91AF919F918F913F912F
:1009D0002F910F900FBE0F901F90189526E8230FB0
:1009E0000296A11DB11DD2CF1F920F920FB60F928A
:1009F00011242F933F934F935F936F937F938F9324
:100A00009F93AF93BF93EF93FF9387E891E00E948A
:100A10000B02FF91EF91BF91AF919F918F917F91C9
:100A20006F915F914F913F912F910F900FBE0F905B
:100A30001F9018951F920F920FB60F9211242F93AB
:100A40008F939F93EF93FF93E0919701F09198011B
:100A50008081E0919D01F0919E0182FD1BC09081FB
:100A60008091A0018F5F8F732091A101821741F0C7
:100A7000E091A001F0E0E957FE4F958F8093A0012F
:100A8000FF91EF919F918F912F910F900FBE0F903B
:100A90001F9018958081F4CF1F920F920FB60F927E
:100AA00011242F933F934F935F936F937F938F9373
:100AB0009F93AF93BF93EF93FF93E0917C01F091ED
:100AC0007D01309749F0A685B7858585968D91FF84
:100AD00014C09C918923A1F4FF91EF91BF91AF9134
:100AE0009F918F917F916F915F914F913F912F9146
:100AF0000F900FBE0F901F9018959C91892361F75E
:100B0000A389B4899C918589809589238C93868952
:100B100097890197F1F7608D718DA685B785558509
:100B200038E020E0CB010197F1F7822F90E0959516
:100B30008795282F4C91452309F02068315091F773
:100B4000868D81FD209580917B0190E001968F73C9
:100B5000992730917A01381799F0A0917B01B0E084
:100B6000A65CBE4F2C9380937B01828D938D019761
:100B7000F1F7A389B4898C919589892B8C93ACCF9B
:100B8000868D8160868FF1CF10928A011092890143
:100B900088EE93E0A0E0B0E080938B0190938C010D
:100BA000A0938D01B0938E012AE031E0309388014B
:100BB0002093870125EC30E030939401209393013A
:100BC00024EC30E0309396012093950120EC30E046
:100BD000309398012093970121EC30E030939A01F3
:100BE0002093990122EC30E030939C0120939B01EB
:100BF00026EC30E030939E0120939D011092A001DD
:100C00001092A1011092A2011092A30110922D0244
:100C100010922C0280932E0290932F02A093300208
:100C2000B09331028CE191E090932B0280932A02E1
:100C3000109241021092400210924302109242021E
:100C400010924502109244021092470210924602FE
:100C5000609148026E7F6D7F609348026695617077
:100C600081E0682783E00E948D0061E083E00E94BC
:100C7000D900E1EBF0E0E491E0933A02EDE9F0E035
:100C8000E491F0E0EE0FFF1FE057FF4F8591949144
:100C900090933C0280933B0260E082E00E94D90086
:100CA0008091480281FD04C061E082E00E948D00D5
:100CB00082E080933602E0EBF0E0E491E0933702CB
:100CC000ECE9F0E0E491F0E0EE0FFF1FEA57FF4F90
:100CD0008591949190933902809338021092250265
:100CE00010922402109227021092260210922902DA
:100CF000109228026DE271E084E292E00C942F04DD
:100D0000CF93DF93CDB7DEB7A7970FB6F894DEBFCA
:100D10000FBECDBF789484B5826084BD84B58160F8
:100D200084BD85B5826085BD85B5816085BD8091B6
:100D30006E00816080936E0010928100809181002E
:100D40008260809381008091810081608093810026
:100D5000809180008160809380008091B1008460E8
:100D60008093B1008091B00081608093B000809149
:100D70007A00846080937A0080917A008260809308
:100D80007A0080917A00816080937A0080917A0065
:100D9000806880937A001092C10061E089E00E942F
:100DA000D90061E08BE00E94D90061E08CE00E94F4
:100DB000D90061E08AE00E94D90061E086E00E94EB
:100DC000D90061E085E00E94D90060E08BE00E94DC
:100DD0008D0060E08CE00E948D0060E086E00E9463
:100DE0008D0060E085E00E948D00E0919701F09118
:100DF000980182E08083E0919301F0919401108248
:100E0000E0919501F09196018FEC808310929F0103
:100E1000E0919B01F0919C0186E08083E091990133
:100E2000F0919A01808180618083E0919901F09135
:100E30009A01808188608083E0919901F0919A0104
:100E4000808180688083E0919901F0919A0180818E
:100E50008F7D8083109245021092440210924302CB
:100E60001092420210924102109240028DE991E0EC
:100E7000909347028093460290913602963108F093
:100E800047C02DEB30E030934102209340022BE924
:100E900031E030934302209342022CE231E0309360
:100EA0004502209344022091680084E0983048F085
:100EB00031E09E3008F430E081E001C0880F3A95BF
:100EC000EAF7822B809368002DE630E0983050F0EE
:100ED0002BE630E09E3030F02CE630E0963110F01A
:100EE00030E020E030933E0220933D02292F30E095
:100EF000983008F077C081E001C0880F9A95EAF732
:100F000080933F0280914602909147020197F1F74A
:100F10008091440290914502892B49F1E0917C0136
:100F2000F0917D0122E0EA32F20709F1309739F0C1
:100F3000A389B4899C918589809589238C9380911C
:100F400048028E7F8093480210927B0110927A01B2
:100F50008AE292E090937D0180937C01E0913D02D2
:100F6000F0913E02808190913F02892B80839AE02C
:100F7000892E912CA12CB12C20E0222E20E0322EA3
:100F80008AE292E00E940F03892B09F497C11A822A
:100F900019821C821B821E821D826CE271E0CE01CE
:100FA00001960E942F040E94480397FD28C08AA33F
:100FB0001BA20D811E810F5F1F4FB801CE0101964C
:100FC0000E94C303882379F329813A818D819E8110
:100FD000BE016E5D7F4F820F931F0E94440C1E83E3
:100FE0000D83E1CF9E3040F42850310981E001C0EB
:100FF000880F2A95EAF784CF2E503109F7CF8091D8
:10100000240290912502009709F466C169817A81D2
:101010006115710509F45EC14091260250912702C5
:101020002D813E814217530708F454C10E94440C9D
:101030008D819E8190932902809328021E821D82B9
:10104000CE0101960E94A60384E292E00E949303DF
:1010500043E050E070E060E0CE0101960E94390468
:1010600089819A810E94A3097C01CE0101960E9488
:10107000A6032E2D30E050E040E019A28E010F5D56
:101080001F4FCA01B901A50194010E94140A605DB5
:10109000F80162938F01211531054105510589F74A
:1010A000309761F001900020E9F73197AF01401BC4
:1010B000510BB80187E891E00E948D010E948B03DB
:1010C00044E050E063E070E0CE0182960E94390473
:1010D000CE0182960E949303FF24B70189E00E940B
:1010E0000A01B7018AE00E940A01CE0101960E941E
:1010F0001604CE0101960E949504CE0101960E942D
:10110000A6036FE271E0CE0182960E94AE038823AF
:1011100009F440C060E08BE00E948D0061E08CE04B
:101120000E948D0060E086E00E948D0061E085E015
:101130000E948D000E9467016B017C018AEF482E9E
:10114000512C612C712C0E9467016C197D098E094C
:101150009F09683E734081059105A8F3F1E04F1A9D
:1011600051086108710828EEC20E23E0D21EE11C6E
:10117000F11C411451046104710429F7CE01019658
:101180000E941604CE0101960E949504CE0101969C
:101190000E94A60361E371E0CE0182960E94AE0335
:1011A0008823E1F061E08BE00E948D0060E08CE03C
:1011B0000E948D0060E086E00E948D0061E085E085
:1011C0000E948D00CE0101960E941604CE01019668
:1011D0000E949504CE0101960E94A60363E371E08C
:1011E000CE0182960E94AE038823E1F060E08BE09E
:1011F0000E948D0061E08CE00E948D0061E086E03D
:101200000E948D0060E085E00E948D00CE01019675
:101210000E941604CE0101960E949504CE0101960B
:101220000E94A60365E371E0CE0182960E94AE03A0
:101230008823E1F060E08BE00E948D0060E08CE0AC
:101240000E948D0060E086E00E948D0060E085E0F5
:101250000E948D00CE0101960E941604CE010196D7
:101260000E949504CE0101960E94A60367E371E0F7
:10127000CE0182960E94AE038823E1F061E08BE00C
:101280000E948D0060E08CE00E948D0061E086E0AD
:101290000E948D0060E085E00E948D00CE010196E5
:1012A0000E941604CE0101960E949504CE0101967B
:1012B0000E94A603CE0182960E94A6032114310447
:1012C00009F45ECE0E94F701882309F459CE0E94EA
:1012D000000056CE0E94EC0A89819A8190932502E3
:1012E000809324028B819C81909327028093260215
:1012F0008D819E8190932902809328021A821982FF
:101300001C821B829BCE84E292E00E94A6038CE1A9
:1013100091E090932B0280932A0280917C0190911E
:101320007D018A52924071F4E0913D02F0913E02BB
:10133000908180913F0280958923808310927D0166
:1013400010927C010895FC0188279927E894219147
:101350002032E9F3293010F02E30C8F32B3241F05F
:101360002D3239F4689404C00E94C109820F911D86
:10137000219120532A30C0F31EF4909581959F4F00
:1013800008957AE0979F902D879F802D910D1124CD
:1013900008952F923F924F925F926F927F928F9219
:1013A0009F92AF92BF92CF92DF92EF92FF920F93F4
:1013B0001F93CF93DF93CDB7DEB7CA1BDB0B0FB6FE
:1013C000F894DEBF0FBECDBF09942A8839884888BB
:1013D0005F846E847D848C849B84AA84B984C88451
:1013E000DF80EE80FD800C811B81AA81B981CE0F48
:1013F000D11D0FB6F894DEBF0FBECDBFED0108952D
:1014000097FB072E16F4009407D077FD09D00E94B1
:10141000360A07FC05D03EF4909581959F4F0895BC
:10142000709561957F4F0895A1E21A2EAA1BBB1BF0
:10143000FD010DC0AA1FBB1FEE1FFF1FA217B307A0
:10144000E407F50720F0A21BB30BE40BF50B661FB6
:10145000771F881F991F1A9469F76095709580957A
:1014600090959B01AC01BD01CF010895AA1BBB1B48
:1014700051E107C0AA1FBB1FA617B70710F0A61B94
:10148000B70B881F991F5A95A9F780959095BC01B5
:10149000CD010895EE0FFF1F0590F491E02D099402
:1014A0000F931F93CF93DF938230910510F482E066
:1014B00090E0E0914B02F0914C0230E020E0B0E08F
:1014C000A0E0309799F42115310509F44AC0281B92
:1014D000390B24303105D8F58A819B81611571055E
:1014E00089F1FB0193838283FE0111C04081518108
:1014F0000281138148175907E0F04817590799F4FA
:10150000109761F012960C93129713961C933296D3
:10151000CF01DF91CF911F910F91089500934B025E
:1015200010934C02F4CF2115310551F042175307A7
:1015300038F0A901DB019A01BD01DF01F801C1CF3B
:10154000EF01F9CF90934C0280934B02CDCFFE0177
:10155000E20FF31F8193919322503109398328833D
:10156000D7CF2091490230914A02232B41F4209198
:1015700002013091030130934A02209349022091E5
:101580000001309101012115310541F42DB73EB71D
:101590004091040150910501241B350BE091490253
:1015A000F0914A02E217F307A0F42E1B3F0B281715
:1015B000390778F0AC014E5F5F4F2417350748F0CC
:1015C0004E0F5F1F50934A024093490281939193BB
:1015D0009FCFF0E0E0E09CCFCF93DF930097E9F05E
:1015E000FC01329713821282A0914B02B0914C02FF
:1015F000ED0130E020E01097A1F420813181820FCD
:10160000931F2091490230914A022817390709F0A7
:1016100061C0F0934A02E0934902DF91CF910895AF
:10162000EA01CE17DF07E8F54A815B819E0141158B
:101630005105B1F7E901FB83EA8349915991C40F40
:10164000D51FEC17FD0761F4808191810296840F0C
:10165000951FE90199838883828193819B838A8383
:10166000F0E0E0E012968D919C9113970097B9F508
:101670002D913C911197CD010296820F931F2091DD
:10168000490230914A022817390739F6309751F547
:1016900010924C0210924B02B0934A02A09349025E
:1016A000BCCFD383C28340815181840F951FC8175B
:1016B000D90761F44E5F5F4F88819981480F591FA8
:1016C000518340838A819B819383828321153105D5
:1016D00009F0B0CFF0934C02E0934B029ECFFD0196
:1016E000DC01C0CF13821282D7CFB0E0A0E0EBE7DD
:1016F000FBE00C94CB098C01009751F4CB010E94C4
:10170000500A8C01C801CDB7DEB7E0E10C94E709BF
:10171000FC01E60FF71F9C0122503109E217F30785
:1017200008F49DC0D901CD91DC911197C617D70758
:1017300098F0C530D10530F3CE010497861797078E
:1017400008F3C61BD70B2297C193D1936D937C935B
:10175000CF010E94EC0AD6CF5B01AC1ABD0A4C0146
:101760008C0E9D1EA0914B02B0914C02512C412C2D
:10177000F12CE12C109731F58091490290914A02A9
:101780008815990509F05CC04616570608F058C040
:101790008091000190910101009741F48DB79EB7AF
:1017A0004091040150910501841B950BE817F9073E
:1017B00008F055C0F0934A02E0934902F9017183A1
:1017C0006083A0CF8D919C91119712966C90129787
:1017D00013967C901397A815B90559F56C0142E052
:1017E000C40ED11CCA14DB0420F1AC014A195B09F8
:1017F000DA011296159780F06282738251834083DA
:10180000D9016D937C93E114F10471F0D701139623
:10181000FC93EE93129776CF22968C0F9D1FF901C1
:1018200091838083F301EFCFF0934C02E0934B025E
:1018300069CF4816590608F42C017D01D3019ACFCF
:10184000CB010E94500A7C01009749F0AE01B8011B
:101850000E94320CC8010E94EC0A870153CF10E0AD
:1018600000E050CFFB01DC0102C001900D9241501D
:101870005040D8F70895FB01DC018D91019080194B
:101880000110D9F3990B0895FB01DC0101900D9231
:101890000020E1F7089510E0C2E6D0E004C0FE01A8
:1018A0000E944A0A2196C336D107C9F7F894FFCFA0
:1018B00000004D028000000000002D028D01BA01E1
:1018C0007A02EB01C901DD0100000000B3028D01C5
:1018D0008803B2020F0327039A020D0A0020006159
:0A18E000006700640073007200004E
:00000001FF
